:020000040800F2
:1000000000800120910C00086D09000873090008A8
:10001000790900087F090008850900080000000030
:100020000000000000000000000000008B09000834
:100030009909000800000000A7090008B509000898
:10004000E10C0008E10C0008E10C0008E10C0008DC
:10005000E10C0008E10C0008E10C0008E10C0008CC
:10006000E10C0008E10C0008E10C0008E10C0008BC
:10007000E10C0008E10C0008E10C0008E10C0008AC
:10008000E10C0008E10C0008E10C00080000000091
:10009000000000000000000000000000E10C00086B
:1000A000E10C0008E10C0008E10C0008E10C00087C
:1000B000E10C0008E10C0008E10C0008E10C00086C
:1000C000E10C0008E10C0008E10C0008E10C00085C
:1000D000E10C0008C1090008E10C00080000000064
:1000E000E10C0008E10C0008E10C00080000000031
:1000F000000000000000000000000000E10C00080B
:1001000000000000E10C0008E10C0008E10C000810
:1001100000000000000000000000000000000000DF
:10012000E10C0008E10C0008E10C0008E10C0008FB
:10013000E10C0008000000000000000000000000CA
:10014000000000000000000000000000E10C0008BA
:10015000E10C0008E10C0008E10C0008E10C0008CB
:10016000E10C0008E10C00080000000000000000A5
:10017000000000000000000000000000000000007F
:1001800000000000E10C000800000000000000007A
:04019000E10C000876
:1001940010B5054C237833B9044B13B10448AFF3BD
:1001A40000800123237010BD140000200000000013
:1001B400F43B000808B5034B1BB103490348AFF3F4
:1001C400008008BD0000000018000020F43B000877
:1001D40053B94AB9002908BF00281CBF4FF0FF31AA
:1001E4004FF0FF3000F070B9ADF1080C6DE904CEAA
:1001F40000F006F8DDF804E0DDE9022304B07047FE
:100204002DE9F047089E0D4604460F46002B4AD1BF
:100214008A42944665D9B2FA82F343B102FA03FCE6
:10022400C3F120029F4020FA02F217439C404FEA98
:100234001C4E1FFA8CF5B7FBFEF1220C0EFB117756
:1002440042EA074201FB05F090420AD91CEB020284
:1002540001F1FF3780F01C81904240F2198102398C
:100264006244121AA4B2B2FBFEF00EFB102244EA5E
:10027400024400FB05F5A5420AD91CEB040400F175
:10028400FF3280F00781A54240F2048164440238C1
:1002940040EA0140641B00211EB1DC400023C6E992
:1002A4000043BDE8F0878B4208D9002E00F0ED80B2
:1002B4000021C6E900050846BDE8F087B3FA83F1DA
:1002C400002949D1AB4202D3824200F2F880841A59
:1002D40065EB030201201746002EE2D0C6E9004771
:1002E400DFE702B9FFDEB2FA82F3002B40F0908020
:1002F4008A1A4FEA1C471FFA8CFE0121B2FBF7F55C
:1003040007FB1520220C42EA00420EFB05F0904246
:1003140008D91CEB020205F1FF3802D2904200F228
:10032400CB804546121AA4B2B2FBF7F007FB1022A9
:1003340044EA02440EFB00FEA64508D91CEB040463
:1003440000F1FF3202D2A64500F2BB801046A4EBB6
:100354000E0440EA05409FE7C1F120078B4022FAD2
:1003640007FC4CEA030C05FA01F420FA07F3FD40FC
:100374004FEA1C492343B5FBF9F81FFA8CFE09FB2D
:1003840018551C0C44EA054408FB0EF5A54202FA74
:1003940001F200FA01F00BD91CEB040408F1FF3A56
:1003A40080F08880A54240F28580A8F10208644468
:1003B400641B9DB2B4FBF9F309FB134445EA0444FE
:1003C40003FB0EFEA64508D91CEB040403F1FF351C
:1003D4006CD2A6456AD9023B644443EA0843A3FBB2
:1003E4000295A4EB0E04AC42C846AE4656D353D095
:1003F40056B1B0EB080264EB0E0404FA07F7CA40E6
:10040400CC401743C6E9007418460021BDE8F087C4
:10041400C3F1200102FA03FC20FA01F225FA01F1EA
:100424009D402A434FEA1C471FFA8CFEB1FBF7F0AC
:1004340007FB1015110C41EA054100FB0EF58D4236
:1004440004FA03F408D91CEB010100F1FF382FD2A0
:100454008D422DD902386144491B92B2B1FBF7F5A4
:1004640007FB151142EA014205FB0EF1914208D93E
:100474001CEB020205F1FF3816D2914214D9023D59
:100484006244521A45EA004138E73146304608E7EB
:100494003946E6E61046FBE64845A9D2B9EB020820
:1004A40065EB0C0E013BA3E74546EAE72B4694E7D0
:1004B4004046D1E7D0467BE7023D624432E7084636
:1004C4000AE76444023842E7704700BF80B500AFD2
:1004D40000F008F800BF80BD80B500AF00F06AF8F6
:1004E40000BF80BD80B582B000AF0023FB71002047
:1004F40000F02CF80346FB71FB79012B02D1FFF7C6
:10050400EBFF03E00A2000F05DFC00BF00BF0837EA
:10051400BD4680BD80B500AF00F04CF800BF80BD83
:1005240080B500AFFFF7D2FF00F0EEF8064B1B7862
:10053400012B04D1FFF7EEFF034B00221A7000F0E9
:1005440043F800BF80BD00BF3100002080B584B0F7
:1005540000AF0346FB714FF40051144800F07EFFD6
:100564000346FB73FB79002B02D0114B01221A7056
:100574000F4B1B78002B0DD0FB7B002B0AD10A20DC
:1005840000F020FC0A4B00221A70FB7B002B07D1E1
:10059400012306E0FB7B012B02D1054B01221A70DB
:1005A400002318461037BD4680BD00BF0008024036
:1005B4000000002080B500AF2021024800F07FFF3A
:1005C40000BF80BD0000024080B500AF142000F0E1
:1005D400F9FB154B1B78002B0ED1144B1B880A33E7
:1005E4009AB2124B1A80114B1B88B3F5FA7F14D9B7
:1005F4000D4B01221A7010E00B4B1B78012B0CD110
:100604000A4B1B880A3B9AB2084B1A80074B1B887B
:10061400092B02D8044B00221A70044B1A88044B8D
:100624001B689A6300BF80BD3000002002000020D8
:100634003802002080B582B000AF78602B4B1B7865
:10064400FF2B10D1294B00221A704FF48072002125
:10065400274803F099FA4FF6FF730A2225492648E2
:1006640002F049FA38E02249244803F0B9FA1F4B52
:100674001B785A1CD1B21D4A11701A46204B1978A6
:100684001B4B9954194B1B78013B194AD35C0A2B19
:1006940022D1164B1B78023B154AD35C0D2B1BD180
:1006A400124B1B789AB24FF6FF731149124802F0AD
:1006B40022FA00BF104802F08FFD0346212BF9D027
:1006C4000A4B00221A704FF480720021084803F08C
:1006D4005BFA0C4B01221A7001220949064802F008
:1006E4009CFA00BF0837BD4680BD00BF350100201D
:1006F400340000201C3C0008800200203801002047
:10070400340100203100002080B400AF064B1B6888
:10071400064A934202D1064B01221A7000BFBD461D
:100724005DF8047B704700BF0400002038010020FE
:100734003100002080B588B000AF07F10C0300221F
:100744001A605A609A60DA601A610023BB60284B11
:100754001B6B274A43F004031363254B1B6B03F005
:100764000403BB60BB6800237B60214B1B6B204AE6
:1007740043F0010313631E4B1B6B03F001037B6007
:100784007B68002208211B4800F080FE0022202103
:10079400194800F07BFE4FF40053FB6000233B61DB
:1007A40000237B6107F10C031946124800F0D2FCC8
:1007B4000823FB6001233B6100237B610023BB61B1
:1007C40007F10C0319460B4800F0C4FC2023FB601E
:1007D40001233B6100237B610023BB6107F10C0310
:1007E4001946054800F0B6FC00BF2037BD4680BD61
:1007F40000380240000802400000024080B500AF0B
:1008040000F06EFA00F018F8FFF794FF00F0C4F956
:1008140000F0F0F80421054801F0ACFB0122044982
:10082400044802F0FAF9FFF77BFEFCE738020020E7
:10083400340100208002002080B594B000AF07F19D
:10084400200330220021184603F09EF907F10C031F
:1008540000221A605A609A60DA601A610023BB6051
:10086400284B1B6C274A43F080531364254B1B6CA5
:1008740003F08053BB60BB6800237B60224B1B6882
:1008840023F44043204A43F4004313601E4B1B6887
:1008940003F440437B607B6802233B620123FB62D9
:1008A40010233B630223BB630023FB6308233B64E5
:1008B40048237B640223BB640423FB6407F1200305
:1008C400184600F017FE0346002B01D000F01EF876
:1008D4000F23FB6002233B6100237B614FF48053B1
:1008E400BB610023FB6107F10C030221184601F0F0
:1008F40079F80346002B01D000F008F800BF503708
:10090400BD4680BD003802400070004080B400AF96
:1009140072B600BFFEE7000080B483B000AF0023CE
:100924007B60104B5B6C0F4A43F4804353640D4B64
:100934005B6C03F480437B607B6800233B60094B62
:100944001B6C084A43F080531364064B1B6C03F082
:1009540080533B603B6800BF0C37BD465DF8047BA9
:10096400704700BF0038024080B400AFFEE780B497
:1009740000AFFEE780B400AFFEE780B400AFFEE74F
:1009840080B400AFFEE780B400AF00BFBD465DF8A1
:10099400047B704780B400AF00BFBD465DF8047BA4
:1009A400704780B400AF00BFBD465DF8047B70475C
:1009B40080B500AF00F0E6F900BF80BD80B500AFA0
:1009C400024802F05BF900BF80BD00BF8002002036
:1009D40080B400AF064BD3F88830054A43F4700363
:1009E400C2F8883000BFBD465DF8047B704700BF85
:1009F40000ED00E080B58EB000AF07F128030022BF
:100A04001A605A609A60DA6007F1200300221A60C3
:100A14005A603B1D00221A605A609A60DA601A61BB
:100A24005A619A612C4B2D4A1A602B4B47225A600B
:100A3400294B00229A60284B40F2F312DA60264BCD
:100A440000221A61244B00229A61234801F0EAF93A
:100A54000346002B01D0FFF759FF4FF48053BB62CC
:100A640007F1280319461C4801F0F6FB0346002B46
:100A740001D0FFF74BFF184801F023FA0346002B7F
:100A840001D0FFF743FF00233B6200237B6207F1A1
:100A940020031946104801F073FF0346002B01D0D0
:100AA400FFF734FF60237B600023BB600023FB60FF
:100AB40000237B613B1D04221946074801F00AFB11
:100AC4000346002B01D0FFF721FF034800F02AF86A
:100AD40000BF3837BD4680BD380200200004004006
:100AE40080B485B000AF78607B681B680B4A934282
:100AF4000DD10023FB600A4B1B6C094A43F002032F
:100B04001364074B1B6C03F00203FB60FB6800BF1C
:100B14001437BD465DF8047B704700BF00040040F5
:100B24000038024080B588B000AF786007F10C034C
:100B340000221A605A609A60DA601A617B681B6846
:100B4400124A93421DD10023BB60114B1B6B104A08
:100B540043F0010313630E4B1B6B03F00103BB60F3
:100B6400BB688023FB6002233B6100237B6100237D
:100B7400BB610223FB6107F10C031946054800F031
:100B8400E9FA00BF2037BD4680BD00BF0004004025
:100B9400003802400000024080B500AF114B124AF9
:100BA4001A60104B4FF4E1325A600E4B00229A60E7
:100BB4000C4B0022DA600B4B00221A61094B0C2209
:100BC4005A61084B00229A61064B0022DA610548FB
:100BD40001F044FF0346002B01D0FFF797FE00BF4E
:100BE40080BD00BF800200200010014080B58AB0A3
:100BF40000AF786007F1140300221A605A609A600B
:100C0400DA601A617B681B681D4A934234D1002361
:100C14003B611C4B5B6C1B4A43F010035364194B40
:100C24005B6C03F010033B613B690023FB60154BD5
:100C34001B6B144A43F001031363124B1B6B03F049
:100C44000103FB60FB684FF4C0637B610223BB615B
:100C54000023FB6103233B6207237B6207F1140338
:100C64001946094800F076FA00220021252000F0F8
:100C7400A8F9252000F0C1F900BF2837BD4680BD82
:100C8400001001400038024000000240DFF834D078
:100C94000D480E490E4A002302E0D458C4500433D0
:100CA400C4188C42F9D30B4A0B4C002301E01360A7
:100CB4000432A242FBD3FFF78BFE02F06DFFFFF775
:100CC4009DFD7047008001200000002014000020DA
:100CD400543C000814000020C8020020FEE7000075
:100CE40080B500AF0E4B1B680D4A43F400731360CC
:100CF4000B4B1B680A4A43F480631360084B1B6860
:100D0400074A43F480731360032000F04FF90F2067
:100D140000F008F8FFF700FE0023184680BD00BF6E
:100D2400003C024080B582B000AF7860124B1A6874
:100D3400124B1B7819464FF47A73B3FBF1F3B2FBF1
:100D4400F3F3184600F067F90346002B01D00123A2
:100D54000EE07B680F2B0AD8002279684FF0FF3031
:100D640000F02FF9064A7B681360002300E001239A
:100D740018460837BD4680BD08000020100000203A
:100D84000C00002080B400AF064B1B781A46064BBB
:100D94001B681344044A136000BFBD465DF8047B1E
:100DA400704700BF10000020C402002080B400AFD0
:100DB400034B1B681846BD465DF8047B704700BFB3
:100DC400C402002080B584B000AF7860FFF7EEFF66
:100DD400B8607B68FB60FB68B3F1FF3F05D00A4B4A
:100DE4001B781A46FB681344FB6000BFFFF7DEFF65
:100DF4000246BB68D31AFA689A42F7D800BF00BF0C
:100E04001037BD4680BD00BF1000002080B485B0FF
:100E140000AF78607B6803F00703FB600C4BDB6872
:100E2400BB60BA684FF6FF031340BB60FB681A024D
:100E3400BB68134343F0BF6343F40033BB60044A0D
:100E4400BB68D36000BF1437BD465DF8047B7047B0
:100E540000ED00E080B400AF044BDB681B0A03F034
:100E640007031846BD465DF8047B704700ED00E0BB
:100E740080B483B000AF0346FB7197F90730002BB1
:100E84000BDBFB7903F01F02074997F907305B0975
:100E9400012000FA02F241F8232000BF0C37BD46BE
:100EA4005DF8047B704700BF00E100E080B483B0CC
:100EB40000AF03463960FB7197F90730002B0ADB5A
:100EC4003B68DAB20C4997F907301201D2B20B44ED
:100ED40083F800230AE03B68DAB20849FB7903F09F
:100EE4000F03043B1201D2B20B441A7600BF0C3735
:100EF400BD465DF8047B704700E100E000ED00E0D2
:100F040080B489B000AFF860B9607A60FB6803F020
:100F14000703FB61FB69C3F10703042B28BF042308
:100F2400BB61FB690433062B02D9FB69033B00E078
:100F340000237B614FF0FF32BB6902FA03F3DA430B
:100F4400BB681A407B699A404FF0FF317B6901FA14
:100F540003F3D9437B680B40134318462437BD463B
:100F64005DF8047B7047000080B582B000AF786004
:100F74007B68013BB3F1807F01D301230FE00A4A70
:100F84007B68013B53600F214FF0FF30FFF78EFF6A
:100F9400054B00229A60044B07221A60002318466E
:100FA4000837BD4680BD00BF10E000E080B582B0C8
:100FB40000AF78607868FFF729FF00BF0837BD46A7
:100FC40080BD80B586B000AF0346B9607A60FB731C
:100FD40000237B61FFF73EFF78617A68B96878691E
:100FE400FFF78EFF024697F90F3011461846FFF7B8
:100FF4005DFF00BF1837BD4680BD80B582B000AF2D
:101004000346FB7197F907301846FFF731FF00BF1D
:101014000837BD4680BD80B582B000AF786078687F
:10102400FFF7A2FF034618460837BD4680BD80B5CA
:1010340084B000AF78607B689B6DFB60FFF7B6FE01
:10104400B8607B6893F83530DBB2022B08D07B683C
:1010540080225A657B68002283F83420012352E001
:101064007B681B681A687B681B6822F016021A608A
:101074007B681B685A697B681B6822F080025A618E
:101084007B681B6C002B03D17B689B6C002B07D007
:101094007B681B681A687B681B6822F008021A6068
:1010A4007B681B681A687B681B6822F001021A605F
:1010B40013E0FFF77BFE0246BB68D31A052B0CD95D
:1010C4007B6820225A657B68032283F835207B687D
:1010D400002283F83420032315E07B681B681B6817
:1010E40003F00103002BE4D17B68DB6D3F229A40BF
:1010F400FB689A607B68012283F835207B680022B4
:1011040083F83420002318461037BD4680BD80B4D0
:1011140083B000AF78607B6893F83530DBB2022B84
:1011240004D07B6880225A6501230CE07B68052289
:1011340083F835207B681B681A687B681B6822F07B
:1011440001021A60002318460C37BD465DF8047B83
:101154007047000080B489B000AF78603960002324
:101164007B6100233B610023BB610023FB6159E1E8
:101174000122FB6902FA03F37B613B681B687A690D
:1011840013403B613A697B699A4240F048813B686D
:101194005B6803F00303012B05D03B685B6803F035
:1011A4000303022B30D17B689B68BB61FB695B0046
:1011B400032202FA03F3DB43BA691340BB613B68C1
:1011C400DA68FB695B0002FA03F3BA691343BB6193
:1011D4007B68BA699A607B685B68BB610122FB69C2
:1011E40002FA03F3DB43BA691340BB613B685B68F3
:1011F4001B0903F00102FB6902FA03F3BA69134302
:10120400BB617B68BA695A603B685B6803F003039F
:10121400032B17D07B68DB68BB61FB695B0003228F
:1012240002FA03F3DB43BA691340BB613B689A6873
:10123400FB695B0002FA03F3BA691343BB617B6881
:10124400BA69DA603B685B6803F00303022B23D1BD
:10125400FB69DA087B68083253F82230BB61FB690A
:1012640003F007039B000F2202FA03F3DB43BA697E
:101274001340BB613B681A69FB6903F007039B00D9
:1012840002FA03F3BA691343BB61FB69DA087B68AA
:101294000832B96943F822107B681B68BB61FB699B
:1012A4005B00032202FA03F3DB43BA691340BB6118
:1012B4003B685B6803F00302FB695B0002FA03F31B
:1012C400BA691343BB617B68BA691A603B685B689F
:1012D40003F44033002B00F0A2800023FB60574B43
:1012E4005B6C564A43F480435364544B5B6C03F485
:1012F4008043FB60FB68524AFB699B08023352F847
:101304002330BB61FB6903F003039B000F2202FA45
:1013140003F3DB43BA691340BB617B68494A9342D8
:1013240019D07B68484A934213D07B68474A93425A
:101334000DD07B68464A934207D07B68454A934266
:1013440001D1042308E0072306E0032304E0022379
:1013540002E0012300E00023FA6902F00302920094
:101364009340BA691343BB613549FB699B08023357
:10137400BA6941F82320384B9B68BB613B69DB4366
:10138400BA691340BB613B685B6803F48013002BAC
:1013940003D0BA693B691343BB612F4ABB699360AD
:1013A4002D4BDB68BB613B69DB43BA691340BB610E
:1013B4003B685B6803F40013002B03D0BA693B69F4
:1013C4001343BB61244ABB69D360234B5B68BB6195
:1013D4003B69DB43BA691340BB613B685B6803F458
:1013E4000033002B03D0BA693B691343BB611A4A2B
:1013F400BB695360184B1B68BB613B69DB43BA692B
:101404001340BB613B685B6803F48033002B03D05B
:10141400BA693B691343BB610F4ABB691360FB693B
:101424000133FB61FB690F2B7FF6A2AE00BF00BF47
:101434002437BD465DF8047B704700BF0038024086
:10144400003801400000024000040240000802404D
:10145400000C024000100240003C014080B485B002
:1014640000AF78600B467B807B681A697B881340E9
:10147400002B02D00123FB7301E00023FB73FB7BF1
:1014840018461437BD465DF8047B704780B483B0BA
:1014940000AF78600B467B8013467B707B78002B13
:1014A40003D07A887B689A6103E07B881A047B689E
:1014B4009A6100BF0C37BD465DF8047B704780B469
:1014C40085B000AF78600B467B807B685B69FB600E
:1014D4007A88FB6813401A04FB68D9437B880B4065
:1014E4001A437B689A6100BF1437BD465DF8047BDC
:1014F4007047000080B586B000AF78607B68002B31
:1015040001D1012367E27B681B6803F00103002B10
:1015140075D0884B9B6803F00C03042B0CD0854BCF
:101524009B6803F00C03082B12D1824B5B6803F415
:101534008003B3F5800F0BD17E4B1B6803F400339B
:10154400002B5BD07B685B68002B57D1012342E200
:101554007B685B68B3F5803F06D1764B1B68754AA0
:1015640043F4803313601DE07B685B68B3F5A02F00
:101574000CD1704B1B686F4A43F4802313606D4B8E
:101584001B686C4A43F4803313600BE0694B1B689F
:10159400684A23F480331360664B1B68654A23F45E
:1015A400802313607B685B68002B13D0FFF7FEFB7E
:1015B400386108E0FFF7FAFB02463B69D31A642B53
:1015C40001D9032307E25B4B1B6803F40033002BB0
:1015D400F0D014E0FFF7EAFB386108E0FFF7E6FB20
:1015E40002463B69D31A642B01D90323F3E1514B1F
:1015F4001B6803F40033002BF0D100E000BF7B68CC
:101604001B6803F00203002B63D04A4B9B6803F072
:101614000C03002B0BD0474B9B6803F00C03082BE7
:101624001CD1444B5B6803F48003002B16D1414B5F
:101634001B6803F00203002B05D07B68DB68012BD9
:1016440001D00123C7E13B4B1B6823F0F8027B6800
:101654001B69DB00374913430B603AE07B68DB68A6
:10166400002B20D0344B01221A60FFF79FFB386116
:1016740008E0FFF79BFB02463B69D31A022B01D912
:101684000323A8E12B4B1B6803F00203002BF0D0CB
:10169400284B1B6823F0F8027B681B69DB00254993
:1016A40013430B6015E0244B00221A60FFF77EFB06
:1016B400386108E0FFF77AFB02463B69D31A022B34
:1016C40001D9032387E11B4B1B6803F00203002BA2
:1016D400F0D17B681B6803F00803002B36D07B68CD
:1016E4005B69002B16D0154B01221A60FFF75EFBD5
:1016F400386108E0FFF75AFB02463B69D31A022B14
:1017040001D9032367E10B4B5B6F03F00203002B4A
:10171400F0D01BE0094B00221A60FFF747FB386149
:101724000EE0FFF743FB02463B69D31A022B07D9AD
:10173400032350E10038024000004742800E474234
:10174400884B5B6F03F00203002BEAD17B681B68B4
:1017540003F00403002B00F097800023FB75814BFA
:101764001B6C03F08053002B0FD10023BB607D4B17
:101774001B6C7C4A43F0805313647A4B1B6C03F05C
:101784008053BB60BB680123FB75774B1B6803F474
:101794008073002B18D1744B1B68734A43F4807315
:1017A4001360FFF703FB386108E0FFF7FFFA024616
:1017B4003B69D31A022B01D903230CE16A4B1B6842
:1017C40003F48073002BF0D07B689B68012B06D157
:1017D400644B1B6F634A43F0010313671CE07B688F
:1017E4009B68052B0CD15F4B1B6F5E4A43F00403CF
:1017F40013675C4B1B6F5B4A43F0010313670BE0F9
:10180400584B1B6F574A23F001031367554B1B6F4B
:10181400544A23F0040313677B689B68002B15D09C
:10182400FFF7C4FA38610AE0FFF7C0FA02463B69E1
:10183400D31A41F28832934201D90323CBE0494BB6
:101844001B6F03F00203002BEED014E0FFF7AEFA97
:1018540038610AE0FFF7AAFA02463B69D31A41F25B
:101864008832934201D90323B5E03E4B1B6F03F04A
:101874000203002BEED1FB7D012B05D1394B1B6CF0
:10188400384A23F0805313647B689B69002B00F073
:10189400A180344B9B6803F00C03082B5CD07B685D
:1018A4009B69022B41D1314B00221A60FFF77EFA6B
:1018B400386108E0FFF77AFA02463B69D31A022B33
:1018C40001D9032387E0274B1B6803F00073002B27
:1018D400F0D17B68DA697B681B6A1A437B685B6AB0
:1018E4009B011A437B689B6A5B08013B1B041A43F8
:1018F4007B68DB6A1B061B4913434B601B4B0122AD
:101904001A60FFF753FA386108E0FFF74FFA02460E
:101914003B69D31A022B01D903235CE0114B1B68EA
:1019240003F00073002BF0D054E0104B00221A6037
:10193400FFF73CFA386108E0FFF738FA02463B69E2
:10194400D31A022B01D9032345E0064B1B6803F08D
:101954000073002BF0D13DE07B689B69012B07D11C
:10196400012338E000380240007000406000474224
:101974001B4B5B68FB607B689B69012B28D0FB6871
:1019840003F480027B68DB699A4221D1FB6803F08F
:101994003F027B681B6A9A421AD1FA6847F6C07301
:1019A40013407A68526A9201934211D1FB6803F49E
:1019B40040327B689B6A5B08013B1B049A4207D157
:1019C400FB6803F070627B68DB6A1B069A4201D0F5
:1019D400012300E0002318461837BD4680BD00BF30
:1019E4000038024080B584B000AF786039607B680D
:1019F400002B01D10123CCE0684B1B6803F00703E3
:101A04003A689A420CD9654B3A68D2B21A70634B61
:101A14001B6803F007033A689A4201D00123B8E037
:101A24007B681B6803F00203002B20D07B681B68D3
:101A340003F00403002B05D0594B9B68584A43F428
:101A4400E05393607B681B6803F00803002B05D008
:101A5400534B9B68524A43F460439360504B9B68DA
:101A640023F0F0027B689B684D4913438B607B68CD
:101A74001B6803F00103002B44D07B685B68012BD7
:101A840007D1474B1B6803F40033002B19D1012302
:101A94007FE07B685B68022B03D07B685B68032B69
:101AA40007D13F4B1B6803F00073002B09D10123BE
:101AB4006FE03B4B1B6803F00203002B01D10123B1
:101AC40067E0374B9B6823F003027B685B6834490B
:101AD40013438B60FFF76AF9F8600AE0FFF766F9D1
:101AE4000246FB68D31A41F28832934201D9032398
:101AF4004FE02B4B9B6803F00C027B685B689B00F8
:101B04009A42EBD1254B1B6803F007033A689A42CB
:101B14000CD2224B3A68D2B21A70204B1B6803F0E5
:101B240007033A689A4201D0012332E07B681B68BC
:101B340003F00403002B08D0194B9B6823F4E052F4
:101B44007B68DB68164913438B607B681B6803F072
:101B54000803002B09D0124B9B6823F460427B6876
:101B64001B69DB000E4913438B6000F021F8024629
:101B74000B4B9B681B0903F00F030A49CB5C22FA49
:101B840003F3094A1360094B1B681846FFF7CAF8A8
:101B9400002318461037BD4680BD00BF003C0240FC
:101BA400003802402C3C0008080000200C000020F3
:101BB4002DE9B04F94B000AF00237B640023FB6495
:101BC40000233B640023BB64794B9B6803F00C0344
:101BD400082B0DD0082B00F2E180002B02D0042B3F
:101BE40003D0DBE0734BBB64DBE0734BBB64D8E036
:101BF4006F4B5B6803F03F037B646D4B5B6803F4DE
:101C04008003002B63D06A4B5B689B090022BB6393
:101C1400FA63BB6BC3F308033B6300237B63D7E91D
:101C24000C4522462B464FF000004FF000015901AD
:101C340041EAD261500102460B462146511A3961EC
:101C4400294663EB01037B614FF000024FF0000370
:101C5400D7E904AB59468B01514643EA9163514697
:101C64008A015146B2EB0108594663EB01094FF072
:101C740000024FF000034FEAC90343EA58734FEAE6
:101C8400C80290469946234618EB0303BB602B46D3
:101C940049EB0303FB604FF000024FF00003D7E968
:101CA400024529464B02214643EAD15321464A02C2
:101CB400104619467B6C0022BB62FA62D7E90A23FC
:101CC400FEF786FA02460B461346FB6458E0384B8F
:101CD4005B689B09002218461146C0F308033B6267
:101CE40000237B62D7E9088942464B464FF0000047
:101CF4004FF00001590141EAD261500102460B46FE
:101D04004146B2EB010A494663EB010B4FF0000276
:101D14004FF000034FEA8B1343EA9A634FEA8A12A7
:101D2400B2EB0A0463EB0B054FF000024FF0000323
:101D3400EB0043EA5473E20014461D464346E3189D
:101D44003B604B4645EB03037B604FF000024FF0D2
:101D54000003D7E9004529468B02214643EA915303
:101D640021468A02104619467B6C0022BB61FA6147
:101D7400D7E90623FEF72CFA02460B461346FB640A
:101D84000B4B5B681B0C03F0030301335B003B64E8
:101D9400FA6C3B6CB2FBF3F3BB6402E0054BBB642F
:101DA40000BFBB6C18465037BD46BDE8B08F00BFBE
:101DB400003802400024F40000127A0080B400AF1E
:101DC400034B1B681846BD465DF8047B704700BF93
:101DD4000800002080B500AFFFF7F0FF0246054B76
:101DE4009B689B0A03F007030349CB5C22FA03F3C5
:101DF400184680BD003802403C3C000880B500AF66
:101E0400FFF7DCFF0246054B9B685B0B03F00703FF
:101E14000349CB5C22FA03F3184680BD0038024024
:101E24003C3C000880B582B000AF78607B68002B32
:101E340001D1012341E07B6893F83D30DBB2002BF4
:101E440006D17B68002283F83C207868FEF748FEC0
:101E54007B68022283F83D207B681A687B68043320
:101E64001946104600F0C0FA7B68012283F8462028
:101E74007B68012283F83E207B68012283F83F209F
:101E84007B68012283F840207B68012283F841208B
:101E94007B68012283F842207B68012283F8432077
:101EA4007B68012283F844207B68012283F8452063
:101EB4007B68012283F83D20002318460837BD467D
:101EC40080BD80B582B000AF78607B68002B01D103
:101ED400012341E07B6893F83D30DBB2002B06D14F
:101EE4007B68002283F83C20786800F039F87B682E
:101EF400022283F83D207B681A687B680433194604
:101F0400104600F071FA7B68012283F846207B6852
:101F1400012283F83E207B68012283F83F207B68FE
:101F2400012283F840207B68012283F841207B68EA
:101F3400012283F842207B68012283F843207B68D6
:101F4400012283F844207B68012283F845207B68C2
:101F5400012283F83D20002318460837BD4680BD82
:101F640080B483B000AF786000BF0C37BD465DF825
:101F7400047B704780B584B000AF786039603B68FB
:101F8400002B09D17B6893F83E30DBB2012B14BFE0
:101F940001230023DBB222E03B68042B09D17B68D8
:101FA40093F83F30DBB2012B14BF01230023DBB2D3
:101FB40015E03B68082B09D17B6893F84030DBB20D
:101FC400012B14BF01230023DBB208E07B6893F8E4
:101FD4004130DBB2012B14BF01230023DBB2002B01
:101FE40001D0012368E03B68002B04D17B68022206
:101FF40083F83E2013E03B68042B04D17B68022263
:1020040083F83F200BE03B68082B04D17B68022255
:1020140083F8402003E07B68022283F841207B6838
:102024001B6801223968184600F084FC7B681B6831
:10203400234A934207D17B681B685A6C7B681B68F0
:1020440042F400425A647B681B681D4A934218D0CC
:102054007B681B68B3F1804F13D07B681B68194AF7
:1020640093420ED07B681B68174A934209D07B6861
:102074001B68164A934204D07B681B68144A934237
:1020840011D17B681B689B6803F00703FB60FB6846
:10209400062B10D07B681B681A687B681B6842F0AB
:1020A40001021A6007E07B681B681A687B681B687A
:1020B40042F001021A60002318461037BD4680BD65
:1020C400000001400004004000080040000C0040F3
:1020D4000040014080B586B000AFF860B9607A6016
:1020E4000023FB75FB6893F83C30012B01D10223DC
:1020F400AEE0FB68012283F83C207B680C2B00F2E5
:102104009F8001A252F823F04121000845220008D3
:1021140045220008452200088121000845220008C4
:102124004522000845220008C32100084522000872
:10213400452200084522000803220008FB681B68AA
:10214400B968184600F0D0F9FB681B689A69FB6807
:102154001B6842F008029A61FB681B689A69FB6875
:102164001B6822F004029A61FB681B689969BB68CA
:102174001A69FB681B680A439A6164E0FB681B6880
:10218400B968184600F016FAFB681B689A69FB6880
:102194001B6842F400629A61FB681B689A69FB68D9
:1021A4001B6822F480629A61FB681B689969BB68AA
:1021B4001B691A02FB681B680A439A6143E0FB68C7
:1021C4001B68B968184600F061FAFB681B68DA6995
:1021D400FB681B6842F00802DA61FB681B68DA6975
:1021E400FB681B6822F00402DA61FB681B68D9698A
:1021F400BB681A69FB681B680A43DA6123E0FB6861
:102204001B68B968184600F0ABFAFB681B68DA690A
:10221400FB681B6842F40062DA61FB681B68DA69D8
:10222400FB681B6822F48062DA61FB681B68D96969
:10223400BB681B691A02FB681B680A43DA6102E087
:102244000123FB7500BFFB68002283F83C20FB7D63
:1022540018461837BD4680BD80B584B000AF78609D
:1022640039600023FB737B6893F83C30012B01D168
:102274000223B4E07B68012283F83C207B680222BD
:1022840083F83D207B681B689B68BB60BB6823F0B8
:102294007703BB60BB6823F47F43BB607B681B6828
:1022A400BA689A603B681B68B3F5005F3ED0B3F52B
:1022B400005F00F28780B3F5805F00F08680B3F59D
:1022C400805F7FD8702B1AD0702B7BD8602B50D0B6
:1022D400602B77D8502B3CD0502B73D8402B58D040
:1022E400402B6FD8302B64D0302B6BD8202B60D090
:1022F400202B67D8002B5CD0102B5AD062E07B686F
:1023040018683B6899683B685A683B68DB6800F06A
:10231400F1FA7B681B689B68BB60BB6843F077037A
:10232400BB607B681B68BA689A604FE07B6818687A
:102334003B6899683B685A683B68DB6800F0DAFAE6
:102344007B681B689A687B681B6842F480429A60C9
:102354003CE07B6818683B6859683B68DB681A4650
:1023640000F04EFA7B681B685021184600F0A7FA6B
:102374002CE07B6818683B6859683B68DB681A4640
:1023840000F06DFA7B681B686021184600F097FA2C
:102394001CE07B6818683B6859683B68DB681A4630
:1023A40000F02EFA7B681B684021184600F087FA7B
:1023B4000CE07B681A683B681B681946104600F0FD
:1023C4007EFA03E00123FB7300E000BF7B68012277
:1023D40083F83D207B68002283F83C20FB7B184671
:1023E4001037BD4680BD000080B485B000AF786072
:1023F40039607B681B68FB607B68344A93420FD06A
:102404007B68B3F1804F0BD07B68314A934207D08D
:102414007B68304A934203D07B682F4A934208D1A9
:10242400FB6823F07003FB603B685B68FA68134346
:10243400FB607B68254A93421BD07B68B3F1804FD5
:1024440017D07B68224A934213D07B68214A934277
:102454000FD07B68204A93420BD07B681F4A93427B
:1024640007D07B681E4A934203D07B681D4A93427F
:1024740008D1FB6823F44073FB603B68DB68FA68AF
:102484001343FB60FB6823F080023B685B691343E2
:10249400FB607B68FA681A603B689A687B68DA625A
:1024A4003B681A687B689A627B68084A934203D146
:1024B4003B681A697B681A637B6801225A6100BF12
:1024C4001437BD465DF8047B704700BF000001402F
:1024D4000004004000080040000C0040004001409F
:1024E400004401400048014080B487B000AF7860E8
:1024F40039607B681B6A23F001027B681A627B687F
:102504001B6A7B617B685B683B617B689B69FB60E2
:10251400FB6823F07003FB60FB6823F00303FB609C
:102524003B681B68FA681343FB607B6923F0020372
:102534007B613B689B687A6913437B617B681C4AB7
:1025440093420CD17B6923F008037B613B68DB6811
:102554007A6913437B617B6923F004037B617B68A5
:10256400134A934211D13B6923F480733B613B6965
:1025740023F400733B613B685B693A6913433B6135
:102584003B689B693A6913433B617B683A695A60CB
:102594007B68FA689A613B685A687B685A637B680F
:1025A4007A691A6200BF1C37BD465DF8047B704728
:1025B4000000014080B487B000AF786039607B6868
:1025C4001B6A23F010027B681A627B681B6A7B61BA
:1025D4007B685B683B617B689B69FB60FB6823F4F9
:1025E400E043FB60FB6823F44073FB603B681B68BB
:1025F4001B02FA681343FB607B6923F020037B61B1
:102604003B689B681B017A6913437B617B681E4AA4
:1026140093420DD17B6923F080037B613B68DB68C7
:102624001B017A6913437B617B6923F040037B615F
:102634007B68154A934213D13B6923F480633B6161
:102644003B6923F400633B613B685B699B003A6927
:1026540013433B613B689B699B003A6913433B61AD
:102664007B683A695A607B68FA689A613B685A6881
:102674007B689A637B687A691A6200BF1C37BD461F
:102684005DF8047B704700BF0000014080B487B050
:1026940000AF786039607B681B6A23F480727B68C2
:1026A4001A627B681B6A7B617B685B683B617B6841
:1026B400DB69FB60FB6823F07003FB60FB6823F0BD
:1026C4000303FB603B681B68FA681343FB607B6988
:1026D40023F400737B613B689B681B027A69134394
:1026E4007B617B681D4A93420DD17B6923F40063AF
:1026F4007B613B68DB681B027A6913437B617B69FE
:1027040023F480637B617B68144A934213D13B6951
:1027140023F480533B613B6923F400533B613B68E2
:102724005B691B013A6913433B613B689B691B016D
:102734003A6913433B617B683A695A607B68FA687B
:10274400DA613B685A687B68DA637B687A691A6283
:1027540000BF1C37BD465DF8047B70470000014094
:1027640080B487B000AF786039607B681B6A23F45B
:1027740080527B681A627B681B6A3B617B685B687A
:102784007B617B68DB69FB60FB6823F4E043FB60EF
:10279400FB6823F44073FB603B681B681B02FA6808
:1027A4001343FB603B6923F400533B613B689B6824
:1027B4001B033A6913433B617B68104A934209D176
:1027C4007B6923F480437B613B685B699B017A6985
:1027D40013437B617B687A695A607B68FA68DA61C3
:1027E4003B685A687B681A647B683A691A6200BF5E
:1027F4001C37BD465DF8047B704700BF00000140F4
:1028040080B487B000AFF860B9607A60FB681B6A77
:102814007B61FB681B6A23F00102FB681A62FB6898
:102824009B693B613B6923F0F0033B617B681B01BF
:102834003A6913433B617B6923F00A037B617A693C
:10284400BB6813437B61FB683A699A61FB687A69E8
:102854001A6200BF1C37BD465DF8047B704780B424
:1028640087B000AFF860B9607A60FB681B6A23F038
:102874001002FB681A62FB689B697B61FB681B6A38
:102884003B617B6923F470437B617B681B037A693A
:1028940013437B613B6923F0A0033B61BB681B01CD
:1028A4003A6913433B61FB687A699A61FB683A6948
:1028B4001A6200BF1C37BD465DF8047B704780B4C4
:1028C40085B000AF786039607B689B68FB60FB680B
:1028D40023F07003FB603A68FB68134343F007037B
:1028E400FB607B68FA689A6000BF1437BD465DF8E8
:1028F400047B704780B487B000AFF860B9607A6039
:102904003B60FB689B687B617B6923F47F437B614D
:102914003B681A027B681A43BB6813437A69134302
:102924007B61FB687A699A6000BF1C37BD465DF81D
:10293400047B704780B487B000AFF860B9607A60F8
:10294400BB6803F01F03012202FA03F37B61FB68F7
:102954001A6A7B69DB431A40FB681A62FB681A6ACD
:10296400BB6803F01F03796801FA03F31A43FB6899
:102974001A6200BF1C37BD465DF8047B7047000037
:1029840080B485B000AF786039607B6893F83C30E0
:10299400012B01D1022350E07B68012283F83C2003
:1029A4007B68022283F83D207B681B685B68FB60C0
:1029B4007B681B689B68BB60FB6823F07003FB604B
:1029C4003B681B68FA681343FB607B681B68FA6802
:1029D4005A607B681B681C4A934218D07B681B684A
:1029E400B3F1804F13D07B681B68184A93420ED012
:1029F4007B681B68164A934209D07B681B68154A9A
:102A0400934204D07B681B68134A93420CD1BB6881
:102A140023F08003BB603B685B68BA681343BB6008
:102A24007B681B68BA689A607B68012283F83D2042
:102A34007B68002283F83C20002318461437BD46E7
:102A44005DF8047B704700BF0000014000040040B3
:102A540000080040000C00400040014080B582B0F6
:102A640000AF78607B68002B01D101233FE07B68D5
:102A740093F83D30DBB2002B06D17B68002283F84B
:102A84003C207868FEF7B2F87B68242283F83D2066
:102A94007B681B68DA687B681B6822F40052DA6082
:102AA400786800F0FDFD7B681B681A697B681B6809
:102AB40022F490421A617B681B685A697B681B6820
:102AC40022F02A025A617B681B68DA687B681B68FB
:102AD40042F40052DA607B6800221A647B68202288
:102AE40083F83D207B68202283F83E20002318468B
:102AF4000837BD4680BD80B58AB002AFF860B960C2
:102B04003B601346FB8000237B61FB6893F83D30F8
:102B1400DBB2202B7CD1BB68002B02D0FB88002BBE
:102B240001D1012375E0FB6893F83C30012B01D1FE
:102B340002236EE0FB68012283F83C20FB6800223C
:102B44001A64FB68212283F83D20FEF72FF978618F
:102B5400FB68FA889A84FB68FA88DA84FB689B68C5
:102B6400B3F5805F08D1FB681B69002B04D10023F7
:102B7400FB61BB68BB6103E0BB68FB610023BB6115
:102B8400FB68002283F83C202AE03B6800937B69C1
:102B940000228021F86800F03DFB0346002B01D0A1
:102BA400032336E0FB69002B0BD1BB691B881A4653
:102BB400FB681B68C2F308025A60BB690233BB613D
:102BC40007E0FB691A78FB681B685A60FB690133EC
:102BD400FB61FB68DB8C9BB2013B9AB2FB68DA8435
:102BE400FB68DB8C9BB2002BCFD13B6800937B69E5
:102BF40000224021F86800F00DFB0346002B01D0B1
:102C0400032306E0FB68202283F83D20002300E034
:102C1400022318462037BD4680BD80B584B000AF7E
:102C2400F860B9601346FB80FB6893F83E30DBB272
:102C3400202B1DD1BB68002B02D0FB88002B01D1B7
:102C4400012316E0FB6893F83C30012B01D10223E9
:102C54000FE0FB68012283F83C20FB6800221A6322
:102C6400FB881A46B968F86800F042FB034600E0A6
:102C7400022318461037BD4680BD000080B5BAB0A7
:102C840000AF78607B681B681B68C7F8E4307B681A
:102C94001B68DB68C7F8E0307B681B685B69C7F8B2
:102CA400DC300023C7F8D8300023C7F8D430D7F875
:102CB400E43003F00F03C7F8D830D7F8D830002B2E
:102CC4000FD1D7F8E43003F02003002B09D0D7F854
:102CD400E03003F02003002B03D0786800F025FCDB
:102CE40056E2D7F8D830002B00F0DE80D7F8DC307D
:102CF40003F00103002B06D1D7F8E03003F49073FE
:102D0400002B00F0D180D7F8E43003F00103002B4E
:102D14000BD0D7F8E03003F48073002B05D07B6828
:102D24001B6C43F001027B681A64D7F8E43003F0AB
:102D34000403002B0BD0D7F8DC3003F00103002B85
:102D440005D07B681B6C43F002027B681A64D7F8D9
:102D5400E43003F00203002B0BD0D7F8DC3003F08F
:102D64000103002B05D07B681B6C43F004027B68D5
:102D74001A64D7F8E43003F00803002B11D0D7F815
:102D8400E03003F02003002B05D1D7F8DC3003F04A
:102D94000103002B05D07B681B6C43F008027B68A1
:102DA4001A647B681B6C002B00F0ED81D7F8E430CB
:102DB40003F02003002B08D0D7F8E03003F0200301
:102DC400002B02D0786800F0B0FB7B681B685B695D
:102DD40003F04003402B0CBF01230023DBB2C7F8F0
:102DE400D4307B681B6C03F00803002B03D1D7F8A5
:102DF400D430002B4FD0786800F0B8FA7B681B6899
:102E04005B6903F04003402B41D17B681B6814339A
:102E1400C7F89C30D7F89C3053E8003FC7F8983087
:102E2400D7F8983023F04003C7F8D0307B681B688C
:102E34001433D7F8D020C7F8A820C7F8A430D7F89F
:102E4400A410D7F8A82041E80023C7F8A030D7F889
:102E5400A030002BD9D17B689B6B002B13D07B68EF
:102E64009B6B7D4A1A657B689B6B1846FEF74FF98E
:102E74000346002B16D07B689B6B1B6D7A68926BA4
:102E8400104698470EE0786800F090F90AE07868F8
:102E940000F08CF906E0786800F088F97B6800227D
:102EA4001A6470E100BF6EE17B681B6B012B40F07C
:102EB4004A81D7F8E43003F01003002B00F043817B
:102EC400D7F8E03003F01003002B00F03C8100231E
:102ED400BB607B681B681B68BB607B681B685B68A6
:102EE400BB60BB687B681B685B6903F04003402BD5
:102EF40040F0B4807B689B6B1B685B68A7F8BE30AE
:102F0400B7F8BE30002B00F040817B689B8DB7F88A
:102F1400BE209A4280F039817B68B7F8BE20DA85FA
:102F24007B689B6BDB69B3F5807F00F088807B68EE
:102F34001B680C33C7F88830D7F8883053E8003F53
:102F4400C7F88430D7F8843023F48073C7F8B830D6
:102F54007B681B680C33D7F8B820C7F89420C7F8EF
:102F64009030D7F89010D7F8942041E80023C7F8A0
:102F74008C30D7F88C30002BD9D17B681B68143384
:102F84007B677B6F53E8003F3B673B6F23F0010394
:102F9400C7F8B4307B681B681433D7F8B420C7F87B
:102FA4008020FB67F96FD7F8802041E80023BB67D6
:102FB400BB6F002BE1D17B681B6814333B663B6E0F
:102FC40053E8003FFB65FB6D23F04003C7F8B030C6
:102FD4007B681B681433D7F8B020FA66BB66B96EF9
:102FE400FA6E41E800237B667B6E002BE3D17B689D
:102FF400202283F83E207B6800221A637B681B68CA
:103004000C33FB64FB6C53E8003FBB64BB6C23F0E4
:103014001003C7F8AC307B681B680C33D7F8AC20BE
:10302400BA657B65796DBA6D41E800233B653B6DFC
:10303400002BE3D17B689B6B1846FDF7F8FF7B6898
:103044009A8D7B68DB8D9BB2D31A9BB21946786844
:1030540000F0B6F899E000BF373400087B689A8D19
:103064007B68DB8D9BB2D31AA7F8CE307B68DB8DEF
:103074009BB2002B00F08B80B7F8CE30002B00F011
:1030840086807B681B680C33BB63BB6B53E8003FD3
:103094007B637B6B23F49073C7F8C8307B681B6831
:1030A4000C33D7F8C8207A643B64396C7A6C41E8F5
:1030B4000023FB63FB6B002BE3D17B681B68143399
:1030C4007B627B6A53E8003F3B623B6A23F0010367
:1030D400C7F8C4307B681B681433D7F8C4203A633C
:1030E400FB62F96A3A6B41E80023BB62BB6A002BBE
:1030F400E3D17B68202283F83E207B6800221A6398
:103104007B681B680C333B613B6953E8003FFB6001
:10311400FB6823F01003C7F8C0307B681B680C33CE
:10312400D7F8C020FA61BB61B969FA6941E80023A4
:103134007B617B69002BE3D1B7F8CE301946786800
:1031440000F03EF823E0D7F8E43003F08003002BCE
:1031540009D0D7F8E03003F08003002B03D078685F
:1031640000F07BF914E0D7F8E43003F04003002BBF
:103174000ED0D7F8E03003F04003002B08D0786875
:1031840000F0BBF904E000BF02E000BF00E000BFB4
:10319400E837BD4680BD00BF80B483B000AF78601F
:1031A40000BF0C37BD465DF8047B704780B483B024
:1031B40000AF786000BF0C37BD465DF8047B7047F4
:1031C40080B483B000AF78600B467B8000BF0C37BF
:1031D400BD465DF8047B704780B485B000AF78606D
:1031E4000023FB600023BB607B6893F83D30DBB2B7
:1031F400FB607B6893F83E30DBB2BB60FB68DAB2FD
:10320400BB68DBB21343DBB218461437BD465DF826
:10321400047B704780B590B000AFF860B9603B6044
:103224001346FB7150E0BB6CB3F1FF3F4CD0BB6C59
:10323400002B07D0FDF7BAFD02463B68D31ABA6CDF
:103244009A4241D2FB681B680C33BB62BB6A53E8E9
:10325400003F7B627B6A23F4D073FB63FB681B68CB
:103264000C33FA6B7A633B63396B7A6B41E8002366
:10327400FB62FB6A002BE5D1FB681B6814337B619E
:103284007B6953E8003F3B613B6923F00103BB6367
:10329400FB681B681433BA6B3A62FB61F9693A6ADA
:1032A40041E80023BB61BB69002BE5D1FB68202208
:1032B40083F83D20FB68202283F83E20FB6800222F
:1032C40083F83C2003230FE0FB681B681A68BB6883
:1032D4001340BA689A420CBF01230023DBB21A469A
:1032E400FB799A429FD0002318464037BD4680BDE3
:1032F40080B485B000AFF860B9601346FB80FB680A
:10330400BA689A62FB68FA889A85FB68FA88DA8553
:10331400FB6800221A64FB68222283F83E20FB68C3
:10332400002283F83C20FB681B69002B07D0FB6854
:103334001B68DA68FB681B6842F48072DA60FB6819
:103344001B685A69FB681B6842F001025A61FB68FA
:103354001B68DA68FB681B6842F02002DA6000230D
:1033640018461437BD465DF8047B704780B495B0A9
:1033740000AF78607B681B680C337B637B6B53E81E
:10338400003F3B633B6B23F49073FB647B681B68D7
:103394000C33FA6C3A64FB63F96B3A6C41E8002332
:1033A400BB63BB6B002BE5D17B681B6814333B62AA
:1033B4003B6A53E8003FFB61FB6923F00103BB64F4
:1033C4007B681B681433BA6CFA62BB62B96AFA6A26
:1033D40041E800237B627B6A002BE5D17B681B6B91
:1033E400012B19D17B681B680C33FB60FB6853E825
:1033F400003FBB60BB6823F010037B647B681B68E1
:103404000C337A6CBA617B617969BA6941E800234B
:103414003B613B69002BE5D17B68202283F83E2089
:103424007B6800221A6300BF5437BD465DF8047BF5
:10343400704780B584B000AF78607B689B6BFB609D
:10344400FB680022DA85FB680022DA84F868FFF75B
:10345400ADFE00BF1037BD4680BD80B485B000AF5F
:1034640078607B6893F83D30DBB2212B3ED17B68DA
:103474009B68B3F5805F14D17B681B69002B10D166
:103484007B681B6AFB60FB681B881A467B681B68A9
:10349400C2F308025A607B681B6A9A1C7B681A6232
:1034A40008E07B681B6A591C7A6811621A787B6889
:1034B4001B685A607B68DB8C9BB2013B9BB27A68C9
:1034C4001946D184002B0FD17B681B68DA687B68AE
:1034D4001B6822F08002DA607B681B68DA687B680C
:1034E4001B6842F04002DA60002300E00223184621
:1034F4001437BD465DF8047B704780B582B000AFD9
:1035040078607B681B68DA687B681B6822F040027D
:10351400DA607B68202283F83D207868FFF73CFE60
:10352400002318460837BD4680BD80B58CB000AF77
:1035340078607B6893F83E30DBB2222B40F0AB809E
:103544007B689B68B3F5805F17D17B681B69002B90
:1035540013D10023FB627B689B6ABB627B681B6898
:103564005B689BB2C3F308039AB2BB6A1A807B6898
:103574009B6A9A1C7B689A6226E07B689B6AFB6262
:103584000023BB627B689B68B3F5805F07D07B68D0
:103594009B68002B0AD17B681B69002B06D17B68D2
:1035A4001B685B68DAB2FB6A1A7008E07B681B6808
:1035B4005B68DBB203F07F03DAB2FB6A1A707B68E4
:1035C4009B6A5A1C7B689A627B68DB8D9BB2013BC9
:1035D4009BB27A681946D185002B5AD17B681B6847
:1035E400DA687B681B6822F02002DA607B681B685B
:1035F400DA687B681B6822F48072DA607B681B6877
:103604005A697B681B6822F001025A617B68202298
:1036140083F83E207B681B6B012B35D17B6800222D
:103624001A637B681B680C337B617B6953E8003F3A
:103634003B613B6923F010037B627B681B680C339E
:103644007A6A3A62FB61F9693A6A41E80023BB612C
:10365400BB69002BE5D17B681B681B6803F0100372
:10366400102B0AD10023FB607B681B681B68FB607E
:103674007B681B685B68FB60FB687B689B8D1946F5
:103684007868FFF79DFD02E07868FCF7D3FF00231C
:1036940002E0002300E0022318463037BD4680BD17
:1036A4002DE9B04FC0B000AFC7F8F400D7F8F4303C
:1036B4001B681B6923F44050D7F8F430D968D7F855
:1036C400F4301A6840EA01031361D7F8F4309A68B9
:1036D400D7F8F4301B691A43D7F8F4305B691A43FE
:1036E400D7F8F430DB691343C7F8F830D7F8F4306F
:1036F4001B68DB6823F4164121F00C01D7F8F43081
:103704001A68D7F8F8300B43D360D7F8F4301B6845
:103714005B6923F44070D7F8F4309969D7F8F43032
:103724001A6840EA01035361D7F8F4301A688F4BE2
:103734009A4205D0D7F8F4301A688D4B9A4204D1D6
:10374400FEF75CFBC7F8FC0003E0FEF743FBC7F899
:10375400FC00D7F8F430DB69B3F5004F40F00C817E
:10376400D7F8FC300022C7F8E830C7F8EC20D7E9D6
:103774003A4522462B469118B9655B41FB65D7E96A
:103784001623214612EB0108294643EB01094FF0A9
:1037940000024FF000034FEAC90343EA58734FEAAB
:1037A400C80290469946234618EB0303C7F8E03055
:1037B4002B4649EB0303C7F8E430D7F8F4305B68D1
:1037C4000022C7F8D830C7F8DC20D7E936120B46F8
:1037D400DB183B65134642EB03037B65D7E91423EF
:1037E400D7E93801FCF7F4FC02460B46614BA3FB16
:1037F40002235B091C01D7F8FC300022C7F8D03043
:10380400C7F8D420D7E9348942464B469118B964A5
:103814005B41FB64D7E91223414612EB010A494696
:1038240043EB010B4FF000024FF000034FEACB03D0
:1038340043EA5A734FEACA0292469B4643461AEB3E
:103844000303C7F8C8304B464BEB0303C7F8CC302F
:10385400D7F8F4305B680022C7F8C030C7F8C4203A
:10386400D7E930120B46DB183B64134642EB0303E3
:103874007B64D7E91023D7E93201FCF7A9FC02469F
:103884000B4611463B4BA3FB01235B09642202FB5D
:1038940003F3CB1ADB0003F13202364BA3FB022302
:1038A4005B095B0003F4F8731C44D7F8FC30002276
:1038B400C7F8B830C7F8BC20D7E92E8942464B4632
:1038C4009118B9635B41FB63D7E90E234146511854
:1038D400396349464B417B634FF000024FF00003CC
:1038E400D7E90CAB5946CB00514643EA51735146D4
:1038F400CA0010461946034642469B18C7F8B03022
:103904004B460A4642EB0303C7F8B430D7F8F43009
:103914005B680022C7F8A830C7F8AC20D7E92A12A0
:103924000B46DB18BB62134642EB0303FB62D7E989
:103934000A23D7E92C01FCF74BFC02460B460D4B3E
:10394400A3FB02135B09642101FB03F3D31ADB001D
:103954003233084AA2FB03235B0903F00702D7F8BA
:10396400F4301B6822449A6006E100BF0010014055
:10397400001401401F85EB51D7F8FC300022C7F832
:10398400A030C7F8A420D7E9288942464B469118AD
:1039940039625B417B62D7E90823414654184946A2
:1039A40043EB01054FF000024FF00003EB0043EA44
:1039B4005473E20014461D464346E318C7F8983092
:1039C4004B4645EB0303C7F89C30D7F8F4305B68EB
:1039D4000022C7F89030C7F894204FF000024FF04F
:1039E4000003D7E9244529468B00214643EA917315
:1039F40021468A00D7E92601FCF7EAFB02460B467A
:103A0400604BA3FB02235B091C01D7F8FC300022A6
:103A1400C7F88830C7F88C20D7E9228942464B463C
:103A24009118B9615B41FB61D7E9062341465118FE
:103A3400396149464B417B614FF000024FF000036E
:103A4400D7E904AB5946CB00514643EA517351467A
:103A5400CA0010461946034642469B18C7F88030F0
:103A64004B460A4642EB0303C7F88430D7F8F430D8
:103A74005B680022BB67FA674FF000024FF0000357
:103A8400D7E91E8949468B00414643EA9173414672
:103A94008A00D7E92001FCF79BFB02460B4611463E
:103AA400384BA3FB01235B09642202FB03F3CB1A0B
:103AB4001B013233334AA2FB03235B0903F0F003F7
:103AC4001C44D7F8FC3000223B677A67D7E91C898D
:103AD40042464B469118B9605B41FB60D7E902232B
:103AE40041465118396049464B417B604FF0000212
:103AF4004FF00003D7E900AB5946CB00514643EAE7
:103B040051735146CA0010461946034642469B1853
:103B1400BB664B460A4642EB0303FB66D7F8F43018
:103B24005B6800223B667A664FF000024FF00003A8
:103B3400D7E9188949468B00414643EA91734146C7
:103B44008A00D7E91A01FCF743FB02460B460D4BEA
:103B5400A3FB02135B09642101FB03F3D31A1B01CA
:103B64003233084AA2FB03235B0903F00F02D7F8A0
:103B7400F4301B6822449A6000BF07F58077BD4685
:103B8400BDE8B08F1F85EB5102440346934200D138
:103B9400704703F8011BF9E770B50D4D0D4C641B1C
:103BA400A4100026A64209D10B4D0C4C00F020F8BD
:103BB400641BA4100026A64205D170BD55F8043B31
:103BC40098470136EEE755F8043B98470136F2E78B
:103BD4004C3C00084C3C00084C3C0008503C00089D
:103BE400034611F8012B03F8012B002AF9D1704781
:103BF400F8B500BFF8BC08BC9E467047F8B500BFD6
:083C0400F8BC08BC9E467047A5
:103C0C006C65646F6E0D0A006C65646F666600000F
:103C1C00E695B0E68DAEE6BAA2E587BA00000000E4
:103C2C000000000000000000010203040607080960
:083C3C00000000000102030476
:083C4400C0C5FF7F0100000074
:043C4C00B9010008B2
:043C500095010008D2
:103C540001000A000C3C00080024F40010000000DD
:043C6400010000005B
:0400000508000C9152
:00000001FF
